{
  "_format": "hh-sol-artifact-1",
  "contractName": "FriendshipAlarmDAO",
  "sourceName": "contracts/FriendshipAlarmDAO.sol",
  "abi": [
    {
      "inputs": [
        {
          "internalType": "address[]",
          "name": "_friends",
          "type": "address[]"
        },
        {
          "internalType": "uint256[]",
          "name": "_weights",
          "type": "uint256[]"
        }
      ],
      "stateMutability": "nonpayable",
      "type": "constructor"
    },
    {
      "anonymous": false,
      "inputs": [
        {
          "indexed": false,
          "internalType": "bool",
          "name": "approved",
          "type": "bool"
        }
      ],
      "name": "AlarmStopApproved",
      "type": "event"
    },
    {
      "inputs": [],
      "name": "checkConsensus",
      "outputs": [],
      "stateMutability": "nonpayable",
      "type": "function"
    },
    {
      "inputs": [
        {
          "internalType": "uint256",
          "name": "",
          "type": "uint256"
        }
      ],
      "name": "friendList",
      "outputs": [
        {
          "internalType": "address",
          "name": "",
          "type": "address"
        }
      ],
      "stateMutability": "view",
      "type": "function"
    },
    {
      "inputs": [
        {
          "internalType": "address",
          "name": "",
          "type": "address"
        }
      ],
      "name": "friends",
      "outputs": [
        {
          "internalType": "uint256",
          "name": "weight",
          "type": "uint256"
        }
      ],
      "stateMutability": "view",
      "type": "function"
    },
    {
      "inputs": [],
      "name": "totalWeight",
      "outputs": [
        {
          "internalType": "uint256",
          "name": "",
          "type": "uint256"
        }
      ],
      "stateMutability": "view",
      "type": "function"
    },
    {
      "inputs": [],
      "name": "yesWeight",
      "outputs": [
        {
          "internalType": "uint256",
          "name": "",
          "type": "uint256"
        }
      ],
      "stateMutability": "view",
      "type": "function"
    }
  ],
  "bytecode": "0x60806040523480156200001157600080fd5b5060405162000caa38038062000caa8339818101604052810190620000379190620004af565b60005b8251811015620001a757604051806020016040528083838151811062000065576200006462000534565b5b6020026020010151815250600160008584815181106200008a576200008962000534565b5b602002602001015173ffffffffffffffffffffffffffffffffffffffff1673ffffffffffffffffffffffffffffffffffffffff168152602001908152602001600020600082015181600001559050506000838281518110620000f157620000f062000534565b5b60200260200101519080600181540180825580915050600190039060005260206000200160009091909190916101000a81548173ffffffffffffffffffffffffffffffffffffffff021916908373ffffffffffffffffffffffffffffffffffffffff1602179055508181815181106200016f576200016e62000534565b5b6020026020010151600260008282546200018a919062000592565b9250508190555080806200019e90620005cd565b9150506200003a565b5050506200061a565b6000604051905090565b600080fd5b600080fd5b600080fd5b6000601f19601f8301169050919050565b7f4e487b7100000000000000000000000000000000000000000000000000000000600052604160045260246000fd5b6200021482620001c9565b810181811067ffffffffffffffff82111715620002365762000235620001da565b5b80604052505050565b60006200024b620001b0565b905062000259828262000209565b919050565b600067ffffffffffffffff8211156200027c576200027b620001da565b5b602082029050602081019050919050565b600080fd5b600073ffffffffffffffffffffffffffffffffffffffff82169050919050565b6000620002bf8262000292565b9050919050565b620002d181620002b2565b8114620002dd57600080fd5b50565b600081519050620002f181620002c6565b92915050565b60006200030e62000308846200025e565b6200023f565b905080838252602082019050602084028301858111156200033457620003336200028d565b5b835b818110156200036157806200034c8882620002e0565b84526020840193505060208101905062000336565b5050509392505050565b600082601f830112620003835762000382620001c4565b5b815162000395848260208601620002f7565b91505092915050565b600067ffffffffffffffff821115620003bc57620003bb620001da565b5b602082029050602081019050919050565b6000819050919050565b620003e281620003cd565b8114620003ee57600080fd5b50565b6000815190506200040281620003d7565b92915050565b60006200041f62000419846200039e565b6200023f565b905080838252602082019050602084028301858111156200044557620004446200028d565b5b835b818110156200047257806200045d8882620003f1565b84526020840193505060208101905062000447565b5050509392505050565b600082601f830112620004945762000493620001c4565b5b8151620004a684826020860162000408565b91505092915050565b60008060408385031215620004c957620004c8620001ba565b5b600083015167ffffffffffffffff811115620004ea57620004e9620001bf565b5b620004f8858286016200036b565b925050602083015167ffffffffffffffff8111156200051c576200051b620001bf565b5b6200052a858286016200047c565b9150509250929050565b7f4e487b7100000000000000000000000000000000000000000000000000000000600052603260045260246000fd5b7f4e487b7100000000000000000000000000000000000000000000000000000000600052601160045260246000fd5b60006200059f82620003cd565b9150620005ac83620003cd565b9250828201905080821115620005c757620005c662000563565b5b92915050565b6000620005da82620003cd565b91507fffffffffffffffffffffffffffffffffffffffffffffffffffffffffffffffff82036200060f576200060e62000563565b5b600182019050919050565b610680806200062a6000396000f3fe608060405234801561001057600080fd5b50600436106100575760003560e01c80631ddabf7a1461005c57806321668a011461008c57806365e40fc1146100bc57806396c82e57146100da578063f959bf1f146100f8575b600080fd5b61007660048036038101906100719190610336565b610102565b604051610083919061037c565b60405180910390f35b6100a660048036038101906100a191906103c3565b610120565b6040516100b391906103ff565b60405180910390f35b6100c461015f565b6040516100d1919061037c565b60405180910390f35b6100e2610165565b6040516100ef919061037c565b60405180910390f35b61010061016b565b005b60016020528060005260406000206000915090508060000154905081565b6000818154811061013057600080fd5b906000526020600020016000915054906101000a900473ffffffffffffffffffffffffffffffffffffffff1681565b60035481565b60025481565b600060038190555060005b600080549050811015610274576000806002428460405160200161019b92919061043b565b6040516020818303038152906040528051906020012060001c6101be9190610496565b149050801561026057600160008084815481106101de576101dd6104c7565b5b9060005260206000200160009054906101000a900473ffffffffffffffffffffffffffffffffffffffff1673ffffffffffffffffffffffffffffffffffffffff1673ffffffffffffffffffffffffffffffffffffffff16815260200190815260200160002060000154600360008282546102589190610525565b925050819055505b50808061026c90610559565b915050610176565b5060006033600254606460035461028b91906105a1565b61029591906105e3565b101590507f5f79da9af1e25bafcc0417aa6720e7ce4c8da12a2ace8992d113905ac6676d82816040516102c8919061062f565b60405180910390a150565b600080fd5b600073ffffffffffffffffffffffffffffffffffffffff82169050919050565b6000610303826102d8565b9050919050565b610313816102f8565b811461031e57600080fd5b50565b6000813590506103308161030a565b92915050565b60006020828403121561034c5761034b6102d3565b5b600061035a84828501610321565b91505092915050565b6000819050919050565b61037681610363565b82525050565b6000602082019050610391600083018461036d565b92915050565b6103a081610363565b81146103ab57600080fd5b50565b6000813590506103bd81610397565b92915050565b6000602082840312156103d9576103d86102d3565b5b60006103e7848285016103ae565b91505092915050565b6103f9816102f8565b82525050565b600060208201905061041460008301846103f0565b92915050565b6000819050919050565b61043561043082610363565b61041a565b82525050565b60006104478285610424565b6020820191506104578284610424565b6020820191508190509392505050565b7f4e487b7100000000000000000000000000000000000000000000000000000000600052601260045260246000fd5b60006104a182610363565b91506104ac83610363565b9250826104bc576104bb610467565b5b828206905092915050565b7f4e487b7100000000000000000000000000000000000000000000000000000000600052603260045260246000fd5b7f4e487b7100000000000000000000000000000000000000000000000000000000600052601160045260246000fd5b600061053082610363565b915061053b83610363565b9250828201905080821115610553576105526104f6565b5b92915050565b600061056482610363565b91507fffffffffffffffffffffffffffffffffffffffffffffffffffffffffffffffff8203610596576105956104f6565b5b600182019050919050565b60006105ac82610363565b91506105b783610363565b92508282026105c581610363565b915082820484148315176105dc576105db6104f6565b5b5092915050565b60006105ee82610363565b91506105f983610363565b92508261060957610608610467565b5b828204905092915050565b60008115159050919050565b61062981610614565b82525050565b60006020820190506106446000830184610620565b9291505056fea2646970667358221220a6ecfa3edcd1836b6ec94d424bbfc4f259b365c366ddb876a2943707c4e6b08d64736f6c63430008140033",
  "linkReferences": {},
  "deployedLinkReferences": {}
}